:100000000C9434000C9446000C9446000C9446006A
:100010000C9446000C9446000C9446000C94460048
:100020000C9446000C9446000C9446000C94460038
:100030000C9446000C9446000C9446000C94460028
:100040000C9446000C9446000C9446000C94460018
:100050000C9446000C9446000C9446000C94460008
:100060000C9446000C94460011241FBECFEFD8E03C
:10007000DEBFCDBF21E0A0E0B1E001C01D92A53000
:10008000B207E1F70E9448000C94BE000C940000F7
:100090008BB18C618BB984B18F6084B98FE39CE99B
:1000A0000197F1F700C0000041E08091040188232E
:1000B000D9F04A9B03C08F5F8093040180910201B5
:1000C0008823F9F04B9B03C08F5F809302018091DE
:1000D0000301882391F14C9BE8CF8F5F809303014C
:1000E000809104018111E5CF4A99E8CF4093040142
:1000F000109201011092000115B880910201811146
:10010000E1CF4B99E4CF409302018091000190919F
:1001100001018F30910571F101969C01359527956C
:100120002827909301018093000194B1822F8923A5
:1001300085B9809103018111CECF4C99B6CF409300
:10014000030180910001909101018F30910571F0C0
:1001500001979C013595279528279093010180935D
:10016000000194B1822F892385B99FCF20E080E0E0
:1001700090E0F3CF20E080E090E0D3CFF894FFCF81
:00000001FF
