:100000000C9434000C9451000C9451000C94510049
:100010000C9451000C9451000C9451000C9451001C
:100020000C9451000C9451000C9451000C9451000C
:100030000C9451000C9451000C9451000C945100FC
:100040000C9451000C9451000C9451000C945100EC
:100050000C9451000C9451000C9451000C945100DC
:100060000C9451000C94510011241FBECFEFD8E026
:10007000DEBFCDBF11E0A0E0B1E0ECE9F5E002C0E9
:1000800005900D92AE3AB107D9F721E0AEEAB1E0A2
:1000900001C01D92A43BB207E1F70E94D2010C946B
:1000A000CC020C9400000F931F93CF93DF93E82FA3
:1000B0008B01E90120E0382FA3E8BEEB0E94F90193
:1000C00096958795929582958F7089279F7089273D
:1000D000992760E071E0DB01A81BB90B3FEBE39FC0
:1000E000312D1124329536953770333009F44CC0D8
:1000F00088F43130E1F13230F1F4F80111821082EC
:10010000FA017183608399838883DF91CF911F9176
:100110000F9108953430F1F0353069F4F8017183AE
:100120006083FA0111821082B983A883DF91CF9195
:100130001F910F91089520E031E0F8013183208371
:10014000FA019183808319821882DF91CF911F91E8
:100150000F910895F80191838083FA011182108232
:1001600079836883DF91CF911F910F910895F801F2
:10017000B183A083FA017183608319821882DF91B1
:10018000CF911F910F910895F80111821082FA0109
:10019000B183A08379836883DF91CF911F910F9101
:1001A00008950E9468026FEF70E00E94E501AC01C3
:1001B000992720E0382FA3E8BEEB0E94F90196951D
:1001C0008795929582958F7089279F7089279C01CA
:1001D000332780E091E0BC01621B730B5FEB459F0E
:1001E000412D1124429546954770433009F4CBC008
:1001F00008F08AC0413009F4B8C0423009F097C015
:100200001092AF011092AE019093B1018093B001B2
:100210003093B3012093B20120E030E0E2E0F1E05E
:1002200081E004C02091AE013091AF016081718105
:10023000269FA001279F500D369F500D11245093EB
:10024000B300608171814091B0015091B101649F10
:100250009001659F300D749F300D112437BD619161
:1002600071914091B2015091B301649F9001659FDB
:10027000300D749F300D112438BD2FEF36E791E01B
:10028000215030409040E1F700C000008F5F84357E
:1002900049F6E8EAF1E0529142912091AE013091A5
:1002A000AF01429FC001439F900D529F900D1124BA
:1002B0009093B300408151812091B0013091B10100
:1002C000429FC001439F900D529F900D112497BDF6
:1002D000408151812091B2013091B301429FC00110
:1002E000439F900D529F900D112498BD2FEF36E73C
:1002F00081E0215030408040E1F700C0000091E0F3
:10030000E230F90741F60895443011F1453079F4AF
:100310009093AF018093AE011092B1011092B001A1
:100320007093B3016093B20120E031E077CF80E0B9
:1003300091E09093AF018093AE013093B10120938F
:10034000B0011092B3011092B20120E031E066CF0B
:100350003093AF012093AE011092B1011092B00121
:100360009093B3018093B20159CF7093AF01609322
:10037000AE019093B1018093B0011092B30110923D
:10038000B2019B014BCF1092AF011092AE0170935E
:10039000B1016093B0019093B3018093B20120E06A
:1003A00030E03CCF88E084B980E68AB984B5836ABE
:1003B00084BD91E095BD8091B000836A8093B000C8
:1003C0009093B1000E94D100FDCF97FB072E16F449
:1003D000009407D077FD09D00E94080207FC05D0E1
:1003E0003EF4909581959F4F0895709561957F4F4C
:1003F0000895A29FB001B39FC001A39F700D811DFE
:100400001124911DB29F700D811D1124911D08951D
:10041000AA1BBB1B51E107C0AA1FBB1FA617B7072A
:1004200010F0A61BB70B881F991F5A95A9F7809546
:100430009095BC01CD0108958F929F92AF92BF928B
:10044000CF92DF92EF92FF92CF93DF93EC0168811E
:1004500079818A819B81611571058105910521F45E
:1004600064E279ED8BE597E02DE133EF41E050E078
:100470000E94780249015A019B01AC01A7EAB1E44C
:100480000E9497026B017C01ACEEB4EFA5019401D0
:100490000E94A502DC01CB018C0D9D1DAE1DBF1D70
:1004A000B7FF03C00197A109B04888839983AA8345
:1004B000BB839F77DF91CF91FF90EF90DF90CF903C
:1004C000BF90AF909F908F9008950E941C02089556
:1004D00088EA91E00E941C020895A0E0B0E08093B9
:1004E000A8019093A901A093AA01B093AB0108952C
:1004F000052E97FB1EF400940E948F0257FD07D033
:100500000E94AA0207FC03D04EF40C948F0250956F
:100510004095309521953F4F4F4F5F4F08959095EF
:100520008095709561957F4F8F4F9F4F08950E94E2
:10053000F901A59F900DB49F900DA49F800D911D72
:1005400011240895B7FF0C9497020E949702821B12
:10055000930B0895A1E21A2EAA1BBB1BFD010DC02F
:10056000AA1FBB1FEE1FFF1FA217B307E407F50763
:1005700020F0A21BB30BE40BF50B661F771F881F3F
:10058000991F1A9469F760957095809590959B01D5
:0C059000AC01BD01CF010895F894FFCF2D
:10059C00000000000000010001000100010001004A
:1005AC000100010001000100010001000200020035
:1005BC000200020002000300030003000300040019
:1005CC0004000400040005000500060006000600F7
:1005DC00070008000800090009000A000B000C00C5
:1005EC000C000D000E00100011001200130015007D
:1005FC001600180019001B001D001F00220024000B
:10060C0027002A002D003000330037003B003F004C
:10061C00440049004E0054005A00610067006F000E
:10062C0077007F00890093009D00A800B500C200F0
:0E063C00CF00DE00EE00FF00010000005400C1
:00000001FF
