S00C00007A6164342E73726563A5
S11300000C9434000C9451000C9451000C94510045
S11300100C9451000C9451000C9451000C94510018
S11300200C9451000C9451000C9451000C94510008
S11300300C9451000C9451000C9451000C945100F8
S11300400C9451000C9451000C9451000C945100E8
S11300500C9451000C9451000C9451000C945100D8
S11300600C9451000C94510011241FBECFEFD8E022
S1130070DEBFCDBF11E0A0E0B1E0ECE9F4E002C0E6
S113008005900D92A631B107D9F721E0A6E1B1E0C0
S113009001C01D92AA37B207E1F70E9418020C941E
S11300A04C020C9400001092C50087E68093C400B3
S11300B0E0ECF0E080818D7F808388E18093C10053
S11300C086E08093C20008959091C00095FFFCCF14
S11300D08093C60008958091C00087FFFCCF809173
S11300E0C6000895DC012C91222371F030E0909138
S11300F0C00095FFFCCF2093C6003F5FFD01E30FD6
S1130100F11D20812111F3CF0895DC0170E06150CD
S113011071091616170604F550E020E030E09091BE
S1130120C00097FFFCCF4091C6009091C00095FF9E
S1130130FCCF4093C6004D3051F0FD01E20FF31F98
S113014040835F5F252F30E02617370744F3FD0116
S1130150E20FF31F1082089520E030E0F8CF29E287
S1130160829F212D112422952F70205D9091C00033
S113017095FFFCCF2093C6002DEC829F912D112476
S1130180969596959695929F212D112426952695C0
S113019026953AE0239F9019112420E3290F90918A
S11301A0C00095FFFCCF2093C6009DEC899F912D44
S11301B011249695969596952AE0929F801911247C
S11301C0805D9091C00095FFFCCF8093C600089598
S11301D0AC019C01329522952F7023273F70232771
S11301E0A7E4B3E00E943D0296958795969587957E
S11301F096958795805D9091C00095FFFCCF809384
S1130200C6009A01369527953695279536952795F4
S1130210A5ECB0E20E943D02FC01F295E295EF707C
S1130220EF27FF70EF279F01ADECBCEC0E943D026D
S11302309695879596958795969587959C01220F17
S1130240331F880F991F880F991F880F991F820FDA
S1130250931FE81BF90BE05D9091C00095FFFCCF64
S1130260E093C6009A013695279536952795ABE716
S1130270B4E10E943D02FC01F695E7959F01ADECC7
S1130280BCEC0E943D029695879596958795969528
S113029087959C01220F331F880F991F880F991F80
S11302A0880F991F820F931FE81BF90BE05D909153
S11302B0C00095FFFCCFE093C6009A01ADECBCEC06
S11302C00E943D02FC01F695E795F695E795F695B3
S11302D0E7959F010E943D0296958795969587958F
S11302E0969587959C01220F331F880F991F880FBD
S11302F0991F880F991F820F931FE81BF90BE05D6C
S11303009091C00095FFFCCFE093C6009A01ADEC3C
S1130310BCEC0E943D029695879596958795969597
S113032087959C01220F331F880F991F880F991FEF
S1130330880F991F820F931F481B590B405D9091A2
S1130340C00095FFFCCF4093C6000895CF93DF9380
S11303501F92CDB7DEB7898327E041E330E389817B
S113036090E0022E02C0959587950A94E2F780FFEB
S11303700CC08091C00085FFFCCF4093C600215083
S113038070F70F90DF91CF9108958091C00085FFA1
S1130390FCCF3093C600215010F70F90DF91CF911E
S11303A008958A3010F0895C0895805D0895982F2F
S11303B092959F709A30A8F420E3290F9091C00081
S11303C095FFFCCF2093C6008F708A3040F4805D87
S11303D09091C00095FFFCCF8093C6000895895C7E
S11303E0F7CF27E3290FEACF80E330E340E390918E
S11303F0C00097FFFCCF2091C6009091C00095FFEC
S1130400FCCF2093C6002D3021F0432F382F822FAC
S1130410EECF80534053982F24E6429F900D112431
S1130420330F3056832F880F880F830F890F089559
S11304308FEF84B90E94530081E091E00E94720022
S11304406091000186E191E00E94850086E191E0DF
S11304500E94720081E091E00E94720060910001AC
S113046086E191E00E94850083E191E00E947200A0
S113047086E191E00E947200EDCFA29FB001B39F8C
S1130480C001A39F700D811D1124911DB29F700D99
S10F0490811D1124911D0895F894FFCFE4
S113049C6357686174277320796F7572206E616D70
S10904AC653A0D0A000090
S9030000FC
