:100000000C9434000C9451000C9451000C94510049
:100010000C9451000C9451000C9451000C9451001C
:100020000C9451000C9451000C9451000C9451000C
:100030000C9451000C9451000C9451000C945100FC
:100040000C9451000C9451000C9451000C945100EC
:100050000C9451000C9451000C9451000C945100DC
:100060000C9451000C94510011241FBECFEFD8E026
:10007000DEBFCDBF12E0A0E0B1E0EAEDF5E002C0E6
:1000800005900D92AC36B107D9F722E0ACE6B2E0AC
:1000900001C01D92A03DB207E1F70E9418020C9426
:1000A000EB020C9400001092C50087E68093C40018
:1000B000E0ECF0E080818D7F808388E18093C10057
:1000C00086E08093C20008959091C00095FFFCCF18
:1000D0008093C60008958091C00087FFFCCF809177
:1000E000C6000895DC012C91222371F030E090913C
:1000F000C00095FFFCCF2093C6003F5FFD01E30FDA
:10010000F11D20812111F3CF0895DC0170E06150D1
:1001100071091616170604F550E020E030E09091C2
:10012000C00097FFFCCF4091C6009091C00095FFA2
:10013000FCCF4093C6004D3051F0FD01E20FF31F9C
:1001400040835F5F252F30E02617370744F3FD011A
:10015000E20FF31F1082089520E030E0F8CF29E28B
:10016000829F212D112422952F70205D9091C00037
:1001700095FFFCCF2093C6002DEC829F912D11247A
:10018000969596959695929F212D112426952695C4
:1001900026953AE0239F9019112420E3290F90918E
:1001A000C00095FFFCCF2093C6009DEC899F912D48
:1001B00011249695969596952AE0929F8019112480
:1001C000805D9091C00095FFFCCF8093C60008959C
:1001D000AC019C01329522952F7023273F70232775
:1001E000A7E4B3E00E94D4029695879596958795EB
:1001F00096958795805D9091C00095FFFCCF809388
:10020000C6009A01369527953695279536952795F8
:10021000A5ECB0E20E94D402FC01F295E295EF70E9
:10022000EF27FF70EF279F01ADECBCEC0E94D402DA
:100230009695879596958795969587959C01220F1B
:10024000331F880F991F880F991F880F991F820FDE
:10025000931FE81BF90BE05D9091C00095FFFCCF68
:10026000E093C6009A013695279536952795ABE71A
:10027000B4E10E94D402FC01F695E7959F01ADEC34
:10028000BCEC0E94D4029695879596958795969595
:1002900087959C01220F331F880F991F880F991F84
:1002A000880F991F820F931FE81BF90BE05D909157
:1002B000C00095FFFCCFE093C6009A01ADECBCEC0A
:1002C0000E94D402FC01F695E795F695E795F69520
:1002D000E7959F010E94D4029695879596958795FC
:1002E000969587959C01220F331F880F991F880FC1
:1002F000991F880F991F820F931FE81BF90BE05D70
:100300009091C00095FFFCCFE093C6009A01ADEC40
:10031000BCEC0E94D4029695879596958795969504
:1003200087959C01220F331F880F991F880F991FF3
:10033000880F991F820F931F481B590B405D9091A6
:10034000C00095FFFCCF4093C6000895CF93DF9384
:100350001F92CDB7DEB7898327E041E330E389817F
:1003600090E0022E02C0959587950A94E2F780FFEF
:100370000CC08091C00085FFFCCF4093C600215087
:1003800070F70F90DF91CF9108958091C00085FFA5
:10039000FCCF3093C600215010F70F90DF91CF9122
:1003A00008958A3010F0895C0895805D0895982F33
:1003B00092959F709A30A8F420E3290F9091C00085
:1003C00095FFFCCF2093C6008F708A3040F4805D8B
:1003D0009091C00095FFFCCF8093C6000895895C82
:1003E000F7CF27E3290FEACF80E330E340E3909192
:1003F000C00097FFFCCF2091C6009091C00095FFF0
:10040000FCCF2093C6002D3021F0432F382F822FB0
:10041000EECF80534053982F24E6429F900D112435
:10042000330F3056832F880F880F830F890F08955D
:100430000E945300539A529A3CE6C32E32E0D32EC8
:100440008BE292E00E947200609100018CE692E0E3
:100450000E9485008CE692E00E94720088E592E09E
:100460000E9472002CE6E22E22E0F22E00E010E064
:10047000F60101900020E9F73197EC56F2400E1793
:100480001F07F0F6F701C1917F018C2F0C2E000C95
:10049000990B0E94E302B82E8C2F0E946400F0E2B8
:1004A000BF1609F446C0E3E0F1E0C0E0D0E005C0CB
:1004B00021963896C532D105C9F190819B11F8CFAC
:1004C0008CE592E00E947200CC0FDD1FCC0FDD1F87
:1004D000CC0FDD1FCC5FDE4FAA24A394B12C8991F1
:1004E0008E32B9F18D3209F04FC05A9A5B9A8FEF74
:1004F00095EAEEE081509040E040E1F700C0000056
:100500005A985B98FFEF21EE84E0F1502040804044
:10051000E1F700C0000088E692E00E9472002FEF31
:10052000A21AB20A87E0A816B104C9F60F5F1F4FDE
:100530009FCF89E592E00E9472009FEFEBE4FDE11E
:100540009150E040F040E1F700C000000F5F1F4F06
:100550008FCF5A9A5B9A2FEF81EE94E02150804022
:100560009040E1F700C000005A985B98EFEFF1EE81
:1005700024E0E150F0402040E1F700C0000084E6B4
:1005800092E00E947200CBCF9FEFE3ECF9E0915034
:10059000E040F040E1F700C0000089E592E00E94F1
:1005A00072000F5F1F4F64CFA29FB001B39FC001C5
:1005B000A39F700D811D1124911DB29F700D811D8F
:1005C0001124911D08959111089581548A5108F4C0
:0A05D000805E855A0895F894FFCF6D
:1005DA00632500612E2D7E00000000622D2E2E2E36
:1005EA007E0000632E2D2E7E000000642D2E2E7EAE
:1005FA00000000662D2E2E7E000000652E7E000073
:10060A00000000662E2E2D2E7E0000672D2E2E7ED7
:10061A00000000682E2E2E2E7E0000692E2E7E00EF
:10062A000000006A2E2D2D2D7E00006B2D2E2D7EB2
:10063A000000006C2E2D2E2E7E00006D2D2D7E00CA
:10064A000000006E2D2E7E000000006F2D2D2D7EE5
:10065A00000000702E2D2D2E7E0000712D2D2E2DC6
:10066A007E0000722E2D2E7E000000732E2E2E7E0E
:10067A00000000742D7E0000000000752E2E2D7ED5
:10068A00000000772E2D2D7E000000762E2E2E2DB6
:10069A007E0000782D2E2E2D7E0000792D2E2D7EA7
:1006AA000000007A2D2D2E2E7E0000312E2D2D2DAC
:1006BA002D7E00322E2E2D2D2D7E00332E2E2E2D08
:1006CA002D7E00342E2E2E2E2D7E00352E2E2E2EF1
:1006DA002E7E00362D2E2E2E2E7E00372D2D2E2EDE
:1006EA002E7E00382D2D2D2E2E7E00392D2D2D2DCE
:1006FA002E7E00302D2D2D2D2D7E00577069737A98
:10070A002074656B737420646F2070727A65746CE0
:10071A00756D61637A656E6961206E61206B6F64C5
:10072A00204D6F72736527613A0D0A00202D2D2D19
:0C073A0020202000202A2000202D20007C
:00000001FF
