:100000000C9434000C9446000C9446000C9446006A
:100010000C9446000C9446000C9446000C94460048
:100020000C9446000C9446000C9446000C94460038
:100030000C9446000C9446000C9446000C94460028
:100040000C9446000C9446000C9446000C94460018
:100050000C9446000C9446000C9446000C94460008
:100060000C9446000C94460011241FBECFEFD8E03C
:10007000DEBFCDBF21E0A0E0B1E001C01D92AA3CEF
:10008000B207E1F70E9448000C94AE000C94000007
:100090005A9A539AC1E0D0E024E630E01CC05B9A43
:1000A0004A9B28C08091C8019091C901FC01EE0FC4
:1000B000FF1FE050FF4FD183C0830196B9010E941A
:1000C00086009093C9018093C8018FE39CE9019752
:1000D000F1F700C00000E091C801F091C901EE0FF6
:1000E000FF1FE050FF4F80819181892BC1F65B9803
:1000F0004A99D8CF8091C8019091C901FC01EE0FB7
:10010000FF1FE050FF4F11821082D7CF97FB072EC1
:1001100016F4009407D077FD09D00E949A0007FCDE
:1001200005D03EF4909581959F4F08957095619507
:100130007F4F0895AA1BBB1B51E107C0AA1FBB1F1D
:10014000A617B70710F0A61BB70B881F991F5A9563
:10015000A9F780959095BC01CD010895F894FFCF43
:00000001FF
