:100000000C9446000C945B000C945B000C945B0019
:100010000C945B000C945B000C945B000C945B00F4
:100020000C945B000C945B000C945B000C945B00E4
:100030000C945B000C945B000C945B000C945B00D4
:100040000C945B000C945B000C945B000C945B00C4
:100050000C945B000C945B000C945B000C945B00B4
:100060000C945B000C945B009F00BD00BD00B300CE
:10007000D400D400EE00BD009F009F00BD00BD0075
:10008000B300D400D400EE00BD00EE0011241FBE6A
:10009000CFEFD8E0DEBFCDBF11E0A0E0B1E0E4E7F4
:1000A000F1E002C005900D92A632B107D9F70E9487
:1000B00083000C94B8000C94000084B5826084BD69
:1000C00084B5806484BD85B5846085BD089587BD91
:1000D0009AB180E489278AB9161617064CF48FE97D
:1000E0009FE00197F1F700C0000061507109B9F776
:1000F0009AB180E489278AB98FE99FE00197F1F7E7
:1001000000C00000089584B5826084BD84B5806419
:1001100084BD85B5846085BD30E4A0E0B1E0E8E64B
:10012000F0E08D919D91249127BD2AB123272AB912
:100130001816190644F4CFE9DFE02197F1F700C063
:1001400000000197C1F78AB183278AB98FE99FE040
:100150000197F1F700C00000CFE3DCE92197F1F748
:1001600000C000003296D1E0A432BD07D1F6D5CF51
:04017000F894FFCF31
:10017400F401F401F401F401F401F401FA00FA00C9
:10018400E803F401F401F401F401F401F401FA00C8
:06019400FA00E80312006E
:00000001FF
