S00C00007A6164312E73726563A8
S11300000C9434000C9449000C9449000C9449005D
S11300100C9449000C9449000C9449000C94490038
S11300200C9449000C9449000C9449000C94490028
S11300300C9449000C9449000C9449000C94490018
S11300400C9449000C9449000C9449000C94490008
S11300500C9449000C9449000C9449000C944900F8
S11300600C9449000C94490011241FBECFEFD8E032
S1130070DEBFCDBF11E0A0E0B1E0EAE0F1E002C0F4
S113008005900D92A230B107D9F70E944B000C9451
S113009083000C94000041E050E02AB1CA010090B2
S11300A0000102C0880F991F0A94E2F7822B8AB9D3
S11300B02BB1CA010090000102C0880F991F0A9455
S11300C0E2F7822B8BB92FEF83ED90E32150804030
S11300D09040E1F700C000009BB19A01009000013C
S11300E002C0220F331F0A94E2F7822F80958923DE
S11300F08BB92FEF83ED90E3215080409040E1F7DE
S10D010000C00000CACFF894FFCF3E
S105010A0200ED
S9030000FC
