:100000000C9434000C943E000C943E000C943E0082
:100010000C943E000C943E000C943E000C943E0068
:100020000C943E000C943E000C943E000C943E0058
:100030000C943E000C943E000C943E000C943E0048
:100040000C943E000C943E000C943E000C943E0038
:100050000C943E000C943E000C943E000C943E0028
:100060000C943E000C943E0011241FBECFEFD8E04C
:10007000DEBFCDBF0E9440000C9473000C940000C2
:100080008CEF8AB982E08BB992E09BB92BB130E05A
:10009000213431058CF48BB1880F8BB94FEF51EEC1
:1000A00084E0415050408040E1F700C00000220F42
:1000B000331F213431057CF32BB130E02930310579
:1000C00024F38BB186958BB94FEF51EE84E041500C
:1000D00050408040E1F700C0000035952795293059
:0A00E00031057CF7D2CFF894FFCF72
:00000001FF
