:100000000C9434000C943E000C943E000C943E0082
:100010000C943E000C943E000C943E000C943E0068
:100020000C943E000C943E000C943E000C943E0058
:100030000C943E000C943E000C943E000C943E0048
:100040000C943E000C943E000C943E000C943E0038
:100050000C943E000C943E000C943E000C943E0028
:100060000C943E000C943E0011241FBECFEFD8E04C
:10007000DEBFCDBF0E944B000C9475000C940000B5
:10008000E0E8F0E0808180628083E1E8F0E0808158
:1000900082618083089580918000806280938000D7
:1000A0008091810082618093810084B1866084B9EF
:1000B0005A9A299A8AE190E090938700809386006B
:1000C0008FE090E090938B0080938A000AC0299A79
:1000D0002FEF80E792E0215080409040E1F700C090
:0E00E00000004A99F4CF2998F3CFF894FFCF8F
:00000001FF
