:100000000C9475000C9492000C9492000C94920045
:100010000C9492000C9492000C9492000C94920018
:100020000C9492000C9492000C9492000C94920008
:100030000C9492000C9492000C9492000C949200F8
:100040000C9492000C9492000C9492000C949200E8
:100050000C9492000C9492000C9492000C949200D8
:100060000C9492000C94920007634236B79BD8A779
:100070001A39685618AEBAAB558C1D3CB7CC5763CD
:10008000BD6DEDFD753EF6177231BF000000803F7B
:1000900008000000BE922449123EABAAAA2ABECD97
:1000A000CCCC4C3E00000080BEABAAAAAA3E000009
:1000B0000000BF000000803F000000000008417801
:1000C000D3BB4387D1133D190E3CC3BD4282AD2B38
:1000D0003E68EC8276BED98FE1A93E4C80EFFFBE30
:1000E00001C4FF7F3F000000000011241FBECFEFBE
:1000F000D8E0DEBFCDBF12E0A0E0B1E0E8E2F7E17A
:1001000002C005900D92A635B107D9F722E0A6E509
:10011000B2E001C01D92AA36B207E1F70E94A50322
:100120000C94920B0C9400009091C00095FFFCCFB2
:100130008093C60080E090E008958091C00087FF22
:10014000FCCF8091C60090E00895E1E8F0E0808166
:1001500081608083089587E690E09093C500809346
:10016000C40088E18093C10086E08093C200E6E588
:10017000F2E084E990E0918780878DE990E09387B1
:10018000828783E0838315861486A4E6B2E0159601
:10019000FC93EE9314971396FC93EE931297ED93C2
:1001A000FC930895CF93DF93C4E8D0E02881398190
:1001B0003F932F939F938F9384E091E09F938F932E
:1001C0000E94A008198218820F900F900F900F9034
:1001D0000F900F90DF91CF910895CF92DF92EF9221
:1001E000FF920F931F93CF93DF931F92CDB7DEB78C
:1001F0000E9490086AE070E00E945F0494E8C92EB3
:10020000D12CF60111821082F82EFF0C8081918191
:100210009F938F938BE191E09F938F9304E011E084
:100220001F930F930E94A008F60111821082FF9C79
:10023000602D1124808191819F938F938AE291E0B8
:100240009F938F931F930F9369830E94A008F601D9
:10025000118210826981862F0E943F04F82E8081CE
:1002600091819F938F938FE391E09F938F931F933F
:100270000F930E94A008F601118210826F2D70E08A
:1002800084E090E00E945F04E82E208131813F935A
:100290002F932EE431E03F932F931F930F930E94EF
:1002A000A008F601118210820FB6F894DEBF0FBECF
:1002B000CDBF8F2D8E190F90DF91CF911F910F9190
:1002C000FF90EF90DF90CF900895CF92DF92EF9262
:1002D000FF920F931F93CF93DF930E94900864E1E6
:1002E00070E00E945F04C4E8D0E0198218827C01AB
:1002F000EE0CFF1C888199819F938F938BE591E091
:100300009F938F9304E011E01F930F930E94A00826
:1003100019821882EE9C6001EF9CD00CD00C112445
:10032000888199819F938F938BE691E09F938F9320
:100330001F930F930E94A00819821882C601B6016C
:100340000E944B047B01888199819F938F9381E860
:1003500091E09F938F931F930F930E94A00819829F
:10036000188284E090E0B7010E944B046C01288160
:1003700039813F932F9321E931E03F932F931F93CE
:100380000F930E94A008198218828DB79EB74896D5
:100390000FB6F8949EBF0FBE8DBFC7018C199D0983
:1003A000DF91CF911F910F91FF90EF90DF90CF9051
:1003B00008958F929F92AF92BF92EF92FF920F9308
:1003C0001F93CF93DF9300D000D0CDB7DEB70E944C
:1003D000900864E670E00E945F04092E000CAA0BEE
:1003E000BB0B89839A83AB83BC8304E810E0F801DC
:1003F0001182108289819A81AB81BC8149815A81A5
:100400006B817C81840F951FA61FB71F89839A83F8
:10041000AB83BC83808191819F938F938FE991E01F
:100420009F938F9384E0E82E81E0F82EFF92EF9265
:100430000E94A008F8011182108269817A818B8163
:100440009C8129813A814B815C810E942F046983C0
:100450007A838B839C83808191819F938F938FEA92
:1004600091E09F938F93FF92EF920E94A008F80172
:100470001182108229813A814B815C8169817A8164
:100480008B819C810E94730429833A834B835C8314
:10049000F801808191819F938F9385EC91E09F93E8
:1004A0008F93FF92EF920E94A008F80111821082B0
:1004B00089809A80AB80BC8029813A814B815C81A4
:1004C00064E070E080E090E00E947304861A970A6E
:1004D000A80AB90A89829A82AB82BC82F80180811B
:1004E00091819F938F9385ED91E09F938F93FF92DE
:1004F000EF920E94A008F8011182108269817A812E
:100500008B819C810FB6F894DEBF0FBECDBF0F90DC
:100510000F900F900F90DF91CF911F910F91FF904F
:10052000EF90BF90AF909F908F900895CF92DF9201
:10053000EF92FF920F931F93CF93DF930E94900847
:1005400064E170E00E945F04BC01990F880B990B75
:100550000E94540524EA30E74DE95FE30E94B004AD
:10056000C4E8D0E0198218829B01AC010E94B0045B
:100570006B017C01888199819F938F9383EE91E039
:100580009F938F9304E011E01F930F930E94A008A4
:1005900019821882A7019601C701B6010E94E005E1
:1005A0006B017C01888199819F938F9382EF91E009
:1005B0009F938F931F930F930E94A0081982188214
:1005C00020E030E040EA50E4C701B6010E944D0649
:1005D0006B017C01888199819F938F9387E092E0E2
:1005E0009F938F931F930F930E94A00819821882E4
:1005F0008DB79EB742960FB6F8949EBF0FBE8DBFC3
:10060000C701B601DF91CF911F910F91FF90EF903D
:10061000DF90CF900895CF92DF92EF92FF92CF9329
:10062000DF930E9490087C010E949008EC01C701B2
:1006300062E370E00E945F04BC01990F880B990B84
:100640000E9454056B017C01CE018170907897FD6A
:1006500077C0BC01990F880B990B0E94540527EEB7
:100660003BEF49E45FE30E94E0059B01AC01C70159
:10067000B6010E94B00410928500109284009B0184
:10068000AC010E94B0046B017C01809184009091C8
:1006900085009F938F938BE192E09F938F93C4E0AB
:1006A000D1E0DF93CF930E94A008109285001092B2
:1006B0008400A7019601C701B6010E94E0056B0105
:1006C0007C0180918400909185009F938F938BE2B1
:1006D00092E09F938F93DF93CF930E94A008109294
:1006E00085001092840020E030E040EA50E4C70129
:1006F000B6010E944D066B017C01809184009091AF
:1007000085009F938F9381E492E09F938F93DF9373
:10071000CF930E94A00810928500109284008DB79C
:100720009EB742960FB6F8949EBF0FBE8DBFC7010D
:10073000B601DF91CF91FF90EF90DF90CF900895B9
:1007400001978E6F9F6F019684CFCF92DF92EF92C9
:10075000FF920F931F93CF93DF9300D000D0CDB7BC
:10076000DEB70E94900864E170E00E945F040E947E
:100770009508E1E8F0E080818160808387E690E081
:100780009093C5008093C40088E18093C10086E007
:100790008093C200E6E5F2E084E990E091878087EB
:1007A0008DE990E09387828783E0838315861486A2
:1007B000A4E6B2E01596FC93EE9314971396FC937F
:1007C000EE931297ED93FC930E94ED00082F10E03A
:1007D0000E9465017C010E94D9016E0D7F1D060FEC
:1007E000171F0E9496029B01AC01B801110F880BE4
:1007F000990B29833A834B835C830E94540529819A
:100800003A814B815C810E94B0046B017C010E94A3
:100810000B039B01AC01C701B60129833A834B83CB
:100820005C830E941C05072E000C880B990B0E940C
:10083000540529813A814B815C810E94B0040E9459
:100840001C05CB010F900F900F900F90DF91CF916F
:100850001F910F91FF90EF90DF90CF900895DB01F3
:100860008F939F930E949504BF91AF91A29F800D9B
:10087000911DA39F900DB29F900D11240895991B77
:1008800079E004C0991F961708F0961B881F7A9587
:10089000C9F780950895AA1BBB1B51E107C0AA1F89
:1008A000BB1FA617B70710F0A61BB70B881F991F11
:1008B0005A95A9F780959095BC01CD01089597FBB5
:1008C000072E16F4009407D077FD09D00E944B0440
:1008D00007FC05D03EF4909581959F4F0895709543
:1008E00061957F4F0895A1E21A2EAA1BBB1BFD0143
:1008F0000DC0AA1FBB1FEE1FFF1FA217B307E407FF
:10090000F50720F0A21BB30BE40BF50B661F771F56
:10091000881F991F1A9469F7609570958095909536
:100920009B01AC01BD01CF0108950E94A004A59FC9
:10093000900DB49F900DA49F800D911D11240895DA
:10094000A29FB001B39FC001A39F700D811D112410
:10095000911DB29F700D811D1124911D0895505855
:10096000BB27AA270E94C7040C94A6050E949805DD
:1009700038F00E949F0520F039F49F3F19F426F4C7
:100980000C9495050EF4E095E7FB0C948F05E92F88
:100990000E94B70558F3BA176207730784079507D3
:1009A00020F079F4A6F50C94D9050EF4E0950B2E01
:1009B000BA2FA02D0B01B90190010C01CA01A001B1
:1009C0001124FF27591B99F0593F50F4503E68F10C
:1009D0001A16F040A22F232F342F4427585FF3CF4D
:1009E000469537952795A795F0405395C9F77EF41E
:1009F0001F16BA0B620B730B840BBAF09150A1F067
:100A0000FF0FBB1F661F771F881FC2F70EC0BA0FEC
:100A1000621F731F841F48F4879577956795B79574
:100A2000F7959E3F08F0B0CF9395880F08F099276F
:100A3000EE0F9795879508950E9423056894B1114C
:100A40000C94DA0508950E94BF0588F09F5798F02E
:100A5000B92F9927B751B0F0E1F0660F771F881FC3
:100A6000991F1AF0BA95C9F714C0B13091F00E94DD
:100A7000D905B1E008950C94D905672F782F882700
:100A8000B85F39F0B93FCCF3869577956795B39504
:100A9000D9F73EF490958095709561957F4F8F4F73
:100AA0009F4F0895E89409C097FB3EF49095809578
:100AB000709561957F4F8F4F9F4F9923A9F0F92F24
:100AC00096E9BB279395F695879577956795B795A2
:100AD000F111F8CFFAF4BB0F11F460FF1BC06F5F88
:100AE0007F4F8F4F9F4F16C0882311F096E911C09A
:100AF000772321F09EE8872F762F05C0662371F0BB
:100B000096E8862F70E060E02AF09A95660F771FCE
:100B1000881FDAF7880F9695879597F9089597F9C2
:100B20009F6780E870E060E008959FEF80EC089593
:100B300000240A94161617061806090608950024BC
:100B40000A9412161306140605060895092E039436
:100B5000000C11F4882352F0BB0F40F4BF2B11F4AA
:100B600060FF04C06F5F7F4F8F4F9F4F089557FD09
:100B70009058440F551F59F05F3F71F04795880F0B
:100B800097FB991F61F09F3F79F0879508951216A2
:100B900013061406551FF2CF4695F1DF08C016164E
:100BA00017061806991FF1CF8695710561050894FF
:100BB0000895E894BB2766277727CB0197F9089516
:100BC0000E94F3050C94A6050E94980538F00E9437
:100BD0009F0520F0952311F00C948F050C9495053A
:100BE00011240C94DA050E94B70570F3959FC1F3A8
:100BF000950F50E0551F629FF001729FBB27F00DCB
:100C0000B11D639FAA27F00DB11DAA1F649F66271F
:100C1000B00DA11D661F829F2227B00DA11D621F6E
:100C2000739FB00DA11D621F839FA00D611D221F28
:100C3000749F3327A00D611D231F849F600D211D0C
:100C4000822F762F6A2F11249F5750409AF0F1F08F
:100C500088234AF0EE0FFF1FBB1F661F771F881FF8
:100C600091505040A9F79E3F510580F00C948F059C
:100C70000C94DA055F3FE4F3983ED4F386957795BC
:100C80006795B795F795E7959F5FC1F7FE2B880F9E
:100C9000911D9695879597F90895FA01EE0FFF1F1C
:100CA000309621053105A1F16115710561F4803897
:100CB000BFE39B0749F168949038810561F0803863
:100CC000BFEF9B0741F099234AF5FF3FE10531054E
:100CD000210519F1E8940894E795D901AA2329F48C
:100CE000AB2FBE2FF85FD0F310C0FF5F70F4A69556
:100CF000E0F7F73950F019F0FF3A38F49F779F93F7
:100D00000DD00F9007FC9058089546F00C9495056F
:100D100060E070E080E89FE308954FE79F775F937E
:100D20004F933F932F930E9448072F913F914F91EC
:100D30005F910E94E0050C94A50629F416F00C942E
:100D40008F050C94D9050C9495050E94BF05A8F356
:100D50009638A0F707F80F92E8942BE33AEA48EBAD
:100D60005FE70E94F6050F920F920F924DB75EB7A4
:100D70000F920E949007E8E6F0E00E94D7064F919C
:100D80005F91EF91FF91E595EE1FFF1F49F0FE5730
:100D9000E0684427EE0F441FFA95E1F74195550BA3
:100DA0000E940A070F9007FE0C94FE060895DF9339
:100DB000CF931F930F93FF92EF92DF927B018C01F1
:100DC000689406C0DA2EEF010E94F305FE01E89454
:100DD000A5912591359145915591A6F3EF010E947A
:100DE000C704FE019701A801DA9469F7DF90EF903C
:100DF000FF900F911F91CF91DF9108959B01AC015E
:100E000060E070E080E89FE30C94C4070C948F05C9
:100E10000C9436080E94BF05D8F39923C9F3940FA8
:100E2000511DA3F39150504094F059F0882332F0B3
:100E3000660F771F881F91505040C1F79E3F5105A4
:100E40002CF7880F911D9695879597F908955F3F28
:100E5000ACF0983E9CF0BB27869577956795B79543
:100E600008F4B1609395C1F7BB0F58F711F460FF18
:100E7000E8CF6F5F7F4F8F4F9F4FE3CF0C94DA0522
:100E800016F00C9436080C94950568940C948F0514
:100E90000E94BF05A8F39923C1F3AEF3DF93CF936C
:100EA0001F930F93FF92C92FDD2788232AF02197E4
:100EB000660F771F881FDAF720E030E040E85FEB2D
:100EC0009FE3883920F0803E38F021968F770E948A
:100ED000B004E0E9F0E004C00E94B004EDEBF0E003
:100EE0000E94D7068B01BE01EC01FB2E6F577109E2
:100EF0007595771F880B990B0E94540528E132E7FE
:100F000041E35FE30E94F305AF2D9801AE01FF902E
:100F10000F911F91CF91DF910E94C7040C94A605F9
:100F2000FA01DC01AA0FBB1F9B01AC01BF5728F4DB
:100F3000222733274427507820C0B75190F4AB2F95
:100F40000024469537952795011CA395D2F30020E0
:100F500071F0220F331F441FB395DAF30ED00C94B7
:100F6000AF0461307105A0E88A07B94630F49B01EF
:100F7000AC016627772788279078309621F0208368
:100F800031834283538308950E94D8070C94A605A9
:100F90000E949F0558F00E94980540F029F45F3F99
:100FA00029F00C948F0551110C94DA050C949505D9
:100FB0000E94B70568F39923B1F3552391F3951B6C
:100FC000550BBB27AA2762177307840738F09F5F6A
:100FD0005F4F220F331F441FAA1FA9F335D00E2ED7
:100FE0003AF0E0E832D091505040E695001CCAF744
:100FF0002BD0FE2F29D0660F771F881FBB1F261707
:1010000037074807AB07B0E809F0BB0B802DBF01DD
:10101000FF2793585F4F3AF09E3F510578F00C94AC
:101020008F050C94DA055F3FE4F3983ED4F3869580
:1010300077956795B795F7959F5FC9F7880F911DCD
:101040009695879597F90895E1E0660F771F881FB9
:10105000BB1F621773078407BA0720F0621B730B6C
:10106000840BBA0BEE1F88F7E09508959F3F31F08F
:10107000915020F4879577956795B795880F911DC6
:101080009695879597F908958F929F92AF92BF9208
:10109000CF92DF92EF92FF92CF93DF93EC016881C2
:1010A00079818A819B81611571058105910521F402
:1010B00064E279ED8BE597E02DE133EF41E050E01C
:1010C0000E94340B49015A019B01AC01A7EAB1E42B
:1010D0000E9495046B017C01ACEEB4EFA501940174
:1010E0000E94560BDC01CB018C0D9D1DAE1DBF1D5A
:1010F000B7FF03C00197A109B04888839983AA83E9
:10110000BB839F77DF91CF91FF90EF90DF90CF90DF
:10111000BF90AF909F908F9008950E9444080895CB
:1011200080E091E00E9444080895A0E0B0E0809340
:10113000000190930101A0930201B093030108956F
:10114000A0E0B0E0E6EAF8E00C946B0BAE014B5F78
:101150005F4FFA0161917191AF01809166029091A8
:1011600067020E94B608E2E00C94870BACE0B0E0A6
:10117000ECEBF8E00C945B0B7C016B018A01FC0149
:1011800017821682838181FFBDC1CE0101964C0179
:10119000F7019381F60193FD859193FF81916F0192
:1011A000882309F4ABC1853239F493FD859193FF0F
:1011B00081916F01853229F4B70190E00E949E0A67
:1011C000E7CF512C312C20E02032A0F48B3269F093
:1011D00030F4803259F0833269F420612CC08D32B2
:1011E00039F0803339F4216026C02260246023C0A6
:1011F000286021C027FD27C030ED380F3A3078F441
:1012000026FF06C0FAE05F9E300D1124532E13C056
:101210008AE0389E300D1124332E20620CC08E32AD
:1012200021F426FD6BC1206406C08C3611F42068C1
:1012300002C0883641F4F60193FD859193FF8191B8
:101240006F018111C1CF982F9F7D9554933028F461
:101250000C5F1F4FFFE3F9830DC0833631F08337F6
:1012600071F0833509F05BC022C0F8018081898369
:101270000E5F1F4F44244394512C540115C0380174
:10128000F2E06F0E711CF801A080B18026FF03C050
:10129000652D70E002C06FEF7FEFC5012C870E94C3
:1012A000930A2C0183012C852F77222E17C0380139
:1012B000F2E06F0E711CF801A080B18026FF03C020
:1012C000652D70E002C06FEF7FEFC5012C870E9493
:1012D000880A2C012C852068222E830123FC1BC048
:1012E000832D90E048165906B0F4B70180E290E0F3
:1012F0000E949E0A3A94F4CFF50127FC859127FEBF
:1013000081915F01B70190E00E949E0A31103A94EA
:10131000F1E04F1A51084114510471F7E5C08436C9
:1013200011F0893639F5F80127FF07C06081718116
:10133000828193810C5F1F4F08C060817181072EED
:10134000000C880B990B0E5F1F4F2F76722E97FFA4
:1013500009C090958095709561957F4F8F4F9F4FF5
:101360002068722E2AE030E0A4010E94D60AA82E3E
:10137000A81844C0853729F42F7EB22E2AE030E029
:1013800025C0F22FF97FBF2E8F36C1F018F48835B3
:1013900079F0B4C0803719F0883721F0AFC02F2F13
:1013A0002061B22EB4FE0DC08B2D8460B82E09C012
:1013B00024FF0AC09F2F9660B92E06C028E030E0B7
:1013C00005C020E130E002C020E132E0F801B7FEC4
:1013D00007C060817181828193810C5F1F4F06C0BD
:1013E0006081718180E090E00E5F1F4FA4010E9438
:1013F000D60AA82EA818FB2DFF777F2E76FE0BC0ED
:10140000372D3E7FA51450F474FE0AC072FC08C04C
:10141000372D3E7E05C0BA2C372D03C0BA2C01C033
:10142000B52C34FF0DC0FE01EA0DF11D8081803323
:1014300011F4397E09C032FF06C0B394B39404C0DE
:10144000832F867809F0B39433FD13C030FF06C0B4
:101450005A2CB31418F4530C5B18B32CB31468F45F
:10146000B70180E290E03C870E949E0AB3943C85DD
:10147000F5CFB31410F43B1801C0312C34FF12C067
:10148000B70180E390E03C870E949E0A3C8532FFD2
:1014900017C031FD03C088E790E002C088E590E006
:1014A000B7010CC0832F867859F031FF02C08BE260
:1014B00001C080E237FD8DE2B70190E00E949E0AF4
:1014C000A51438F4B70180E390E00E949E0A5A9474
:1014D000F7CFAA94F401EA0DF11D8081B70190E0E5
:1014E0000E949E0AA110F5CF332009F451CEB70116
:1014F00080E290E00E949E0A3A94F6CFF70186813E
:10150000978102C08FEF9FEF2C96E2E10C94770B4E
:10151000FC010590615070400110D8F780959095BE
:101520008E0F9F1F0895FC016150704001900110C3
:10153000D8F7809590958E0F9F1F08950F931F9356
:10154000CF93DF93FB01238121FD03C08FEF9FEF3A
:1015500028C022FF16C04681578124813581421759
:10156000530744F4A081B1819D012F5F3F4F318328
:1015700020838C93268137812F5F3F4F37832683CB
:1015800010C0EB01092F182F0084F185E02D09957B
:10159000892BE1F68E819F8101969F838E83812F17
:1015A000902FDF91CF911F910F910895FA01AA27F3
:1015B000283051F1203181F1E8946F936E7F6E5F96
:1015C0007F4F8F4F9F4FAF4FB1E03ED0B4E03CD044
:1015D000670F781F891F9A1FA11D680F791F8A1F27
:1015E000911DA11D6A0F711D811D911DA11D20D08E
:1015F00009F468943F912AE0269F11243019305D48
:101600003193DEF6CF010895462F4770405D419338
:10161000B3E00FD0C9F7F6CF462F4F70405D4A3385
:1016200018F0495D31FD4052419302D0A9F7EACF4D
:10163000B4E0A6959795879577956795BA95C9F77C
:1016400000976105710508959B01AC010A2E06946F
:101650005795479537952795BA95C9F7620F731F28
:10166000841F951FA01D0895052E97FB1EF400945E
:101670000E944B0B57FD07D00E94730407FC03D058
:101680004EF40C944B0B50954095309521953F4F5F
:101690004F4F5F4F089590958095709561957F4F5E
:1016A0008F4F9F4F0895B7FF0C9495040E949504A7
:1016B000821B930B08952F923F924F925F926F92ED
:1016C0007F928F929F92AF92BF92CF92DF92EF92D2
:1016D000FF920F931F93CF93DF93CDB7DEB7CA1B53
:1016E000DB0B0FB6F894DEBF0FBECDBF09942A887E
:1016F000398848885F846E847D848C849B84AA8426
:10170000B984C884DF80EE80FD800C811B81AA81B2
:10171000B981CE0FD11D0FB6F894DEBF0FBECDBF7D
:08172000ED010895F894FFCFDC
:101728000100000025732074696D6520696E20250D
:1017380075206379636C65730A0D0075696E74387A
:10174800206164646974696F6E0075696E7438200D
:101758006D756C7469706C69636174696F6E00751E
:10176800696E7438206469766973696F6E0075698B
:101778006E7438206D6F64756C6F0075696E7431A6
:1017880036206164646974696F6E0075696E7431BE
:1017980036206D756C7469706C69636174696F6EFD
:1017A8000075696E743136206469766973696F6E85
:1017B8000075696E743136206D6F64756C6F0075D5
:1017C800696E743332206164646974696F6E007580
:1017D800696E743332206D756C7469706C696361FD
:1017E80074696F6E0075696E743332206469766946
:1017F80073696F6E0075696E743332206D6F64752E
:101808006C6F00666C6F6174206164646974696FE1
:101818006E00666C6F6174206D756C7469706C69AC
:10182800636174696F6E00666C6F617420657870AF
:101838006F6E656E746174696F6E00646F75626C4B
:1018480065206164646974696F6E00646F75626CA9
:1018580065206D756C7469706C69636174696F6E0D
:1018680000646F75626C65206578706F6E656E7464
:061878006174696F6E004F
:00000001FF
